:0400000078EF3EF067
:107AF6000250D76E01C0D6FF1200E0EC3DF09DECBF
:107B06003DF0ABEC3DF0B9EC3DF01200F2B48EEF77
:107B16003DF091EF3DF0010E92EF3DF0000E1200A8
:107B26009EB098EF3DF09BEF3DF0010E9CEF3DF0CF
:107B3600000E1200700ED36E040ED26E400E9B6EB7
:107B4600D2AEA8EF3DF0AAEF3DF0A3EF3DF0120054
:107B5600000ECC6E000ECF6E000ECE6ECECF3CF079
:107B6600CFCF3DF09E90010ECD6E1200D59CD7680A
:107B76005F0ED66ED650D7CF01F0026A01C002F072
:107B8600016A01103A6E02503B6EF294970ED56E62
:107B96001200CDA4D1EF3DF0D3EF3DF0DBEF3DF089
:107BA600CD900250CF6E01C0CEFFCD80DFEF3DF00D
:107BB6000250CF6E01C0CEFF1200000E896E000E7D
:107BC6008A6E000E8B6E9268DF0E936E9468FC0EC2
:107BD6000F013A6F1F0E396F230E386F000E616E5C
:107BE600F18E120010471043403FC03B70384035BD
:107BF6004032702FD02C402AE027A02580239021E8
:107C0600B01FE01D401CA01A2019C01760162015D1
:107C1600F013D0120000851E851E851E851E851E4A
:107C2600851E093D093D093D093D093D851E093D64
:107C3600851E093D851E093D093D851E093D093DF7
:107C4600093D093D093D851E851E851E093D851E8A
:107C5600851E093D851E093D851E093D851E093D7A
:107C6600851E093D093D851E093D093D093D093D24
:107C7600093D851E851E851E093D851E851E093DFD
:107C8600FB0138027E021000000000000000000028
:107C960000000000000000000000000000000000DE
:107CA60000000000000000000000000000000000CE
:107CB60000000000000000000000000000000000BE
:107CC60000000000000000000000000000000000AE
:107CD600000000000000000000000000000000009E
:107CE600000000000000000000001C0EF66E7C0E76
:107CF600F76E000EF86E04EE00F010EE6AF0090062
:107D0600F5CFEEFFE550E150FAE17E0EF66E7D0E00
:107D1600F76E000EF86E03EE00F010EED4F00900D8
:107D2600F5CFEEFFE550E150FAE1860EF66E7C0ED9
:107D3600F76E000EF86E02EE00F010EE6AF0090023
:107D4600F5CFEEFFE550E150FAE1EA0EF66E7B0E56
:107D5600F76E000EF86E00EECAF010EE32F0090073
:107D6600F5CFEEFFE550E150FAE13D6A3C6A3B6A29
:107D76003A6A000129EF3FF01300130018001300C0
:107D860018000F001300160018000A000F00180054
:107D96000A00180007001800000002000100000099
:107DA6000A00130016000C00140016001800130039
:107DB6000F001100020018000F0018000A0018003A
:107DC6000700180000000200010000000A0013006E
:107DD60016000C0014001600180013000F00110006
:107DE6000200C017C017C017E01DC017F013E02728
:107DF600000000000000000000000000000000007D
:107E0600000000000000000000000000000000006C
:107E1600000000000000000000000000000000005C
:107E2600000000000000000000000000000000004C
:107E3600000000000000000000000000000000003C
:107E460000000000000000000000000022EE00F02C
:107E560010EE60F0690EDBCFE3FFE806FCE223EEEE
:107E66006AF011EE00F0690EDBCFE3FFE806FCE2F4
:107E760020EECAF010EE07F0310EDBCFE3FFE80686
:107E8600FCE223EE00F012EE6AF0690EDBCFE3FFB0
:107E9600E806FCE224EE00F011EE6AF0690EDBCF94
:107EA600E3FFE806FCE280EC3DF080B45DEF3FF0D6
:107EB6005FEF3FF058EF3FF0000E396E3950020D7C
:107EC6006A0EF324D96E010EF420DA6EDECF03F0CB
:107ED600DDCF04F003500008016E0450D8A0E82A54
:107EE6000008026E7BEC3DF0F294D8EF3FF039507B
:107EF600020D6A0EF324D96E020EF420DA6EDECF7E
:107F060003F0DDCF04F0D89003360436070E0324C1
:107F1600D96E000E0420DA6EDE50DE10D8B496EF6D
:107F26003FF098EF3FF0D8EF3FF03950020D6A0E60
:107F3600F324D96E020EF420DA6EDECF03F0DDCF25
:107F460004F0D89003360436070E0324D96E000ECB
:107F56000420DA6EDECF05F0DDCF06F0055000080E
:107F6600016E0650D8A0E82A0008026ECCEC3DF05F
:107F76009E9093EC3DF00009D8B4C4EF3FF0C6EFF5
:107F86003FF0BCEF3FF08ABACBEF3FF0CEEF3FF0C9
:107F9600010ECFEF3FF0000EFF0A036E033A0346D1
:107FA6008A500318DF0B03188A6E89EC3DF000092E
:107FB600D8B4E0EF3FF0E2EF3FF07AEF3FF0F80E93
:107FC600026E5E0E016E7BEC3DF0F29489EC3DF0A4
:107FD6000009D8B4F1EF3FF0F3EF3FF0E9EF3FF0DF
:107FE600392A340E3964FAEF3FF0FCEF3FF061EFC7
:0A7FF6003FF058EF3FF000EF00F0FD
:020000040020DA
:08000000FFFFFFFFFFFFFFFF00
:020000040030CA
:0E000000FF281F3CFFBF85FF0FC00FE00F4021
:00000001FF
